S00C00004C6162322E73726563D7
S11300000C9434000C9451000C9451000C94820014
S11300100C9451000C9451000C9451000C94510018
S11300200C9451000C9451000C9451000C94510008
S11300300C9451000C9451000C9451000C945100F8
S11300400C9451000C9451000C9451000C945100E8
S11300500C9451000C9451000C9451000C945100D8
S11300600C9451000C94510011241FBECFEFD8E022
S1130070DEBFCDBF11E0A0E0B1E0E4EFF1E002C0EB
S113008005900D92AC30B107D9F721E0ACE0B1E0B6
S113009001C01D92AE30B207E1F70E94F5000C9446
S11300A0F8000C940000F89484B18B7F84B984B177
S11300B0877F84B984B18F7E84B985B1846085B922
S11300C085B1886085B985B1806185B9E8E6F0E0DD
S11300D0808181608083EBE6F0E0808184608083AE
S11300E08081886080838081806180838FEF8AB97A
S11300F078940895E0910D01F0E0E050FF4F808185
S11301008BB908951F920F920FB60F9211242F935B
S11301103F934F935F936F937F938F939F93AF938B
S1130120BF93CF93EF93FF9383B190E09595879519
S113013095958795817023B130E035952795359550
S1130140279535952795922F917023B130E03595F9
S11301502795359527953595279535952795C22F5C
S1130160C17020910C018217F9F080930C0189175A
S113017061F080910D01893021F080910D018F5F34
S113018001C080E080930D010BC080910D01882394
S113019021F080910D01815001C089E080930D010F
S11301A00E947A0091E001C090E080910A01C81792
S11301B051F0911108C0C11104C010920D010E94A8
S11301C07A00C0930A01FF91EF91CF91BF91AF9153
S11301D09F918F917F916F915F914F913F912F915B
S11301E00F900FBE0F901F9018950E945300FFCFE1
S10701F0F894FFCFAD
S10F01F43F065B4F666D7D077F6F0100C6
S9030000FC
