S01700004763634170706C69636174696F6E312E737265635B
S11300000C9434000C943E000C943E000C943E007E
S11300100C943E000C943E000C943E000C943E0064
S11300200C943E000C943E000C943E000C943E0054
S11300300C943E000C943E000C943E000C943E0044
S11300400C943E000C943E000C943E000C943E0034
S11300500C943E000C943E000C943E000C943E0024
S11300600C943E000C943E0011241FBECFEFD8E048
S1130070DEBFCDBF0E9446000C9482000C940000A9
S11300809BB1987F8770892B8BB9089584B1877F42
S113009084B984B18F7E84B985B1886085B985B10E
S11300A0806185B987E08AB91B9902C090E001C0DC
S11300B091E01C9902C020E001C021E0911102C02E
S11300C080E001C081E021118260992379F022232C
S11300D069F083600E9440002FE784E89EE121508C
S11300E080409040E1F700C0000084E00E9440009E
S11300F02FE78AE196E0215080409040E1F700C06C
S10B01000000D2CFF894FFCFF8
S9030000FC
