:100000000C9434000C9449000C9449000C94490061
:100010000C9449000C9449000C9449000C9449003C
:100020000C9449000C9449000C9449000C9449002C
:100030000C9449000C9449000C9449000C9449001C
:100040000C9449000C9449000C9449000C9449000C
:100050000C9449000C9449000C9449000C944900FC
:100060000C9449000C94490011241FBECFEFD8E036
:10007000DEBFCDBF11E0A0E0B1E0E6E9F1E002C0F3
:1000800005900D92AA30B107D9F70E944B000C944D
:10009000C9000C940000CF93DF93CDB7DEB72A9749
:1000A0000FB6F894DEBF0FBECDBF84B18B7F84B98D
:1000B00084B1877F84B98FEF8AB985B1846085B9AF
:1000C00085B1886085B98AE0E0E0F1E0DE01119653
:1000D00001900D928A95E1F790E01A9B19C02FE7E5
:1000E0003AE186E0215030408040E1F700C0000056
:1000F000892F90E001966AE070E00E94A100982F9D
:10010000E1E0F0E0EC0FFD1FE80FF11D80818BB9FD
:100110001B9BE3CF2FE73AE186E02150304080403F
:10012000E1F700C00000992311F0915001C099E05F
:10013000E1E0F0E0EC0FFD1FE90FF11D80818BB9CC
:10014000CCCF97FB072E16F4009407D077FD09D08B
:100150000E94B50007FC05D03EF4909581959F4F15
:100160000895709561957F4F0895AA1BBB1B51E1BF
:1001700007C0AA1FBB1FA617B70710F0A61BB70B17
:10018000881F991F5A95A9F780959095BC01CD01BC
:060190000895F894FFCF72
:0A0196003F065B4F666D7D077F6F2B
:00000001FF
