S00D00004C616220312E73726563B7
S11300000C9434000C9449000C9449000C9449005D
S11300100C9449000C9449000C9449000C94490038
S11300200C9449000C9449000C9449000C94490028
S11300300C9449000C9449000C9449000C94490018
S11300400C9449000C9449000C9449000C94490008
S11300500C9449000C9449000C9449000C944900F8
S11300600C9449000C94490011241FBECFEFD8E032
S1130070DEBFCDBF11E0A0E0B1E0E2EEF0E002C0EF
S113008005900D92AA30B107D9F70E944B000C9449
S11300906F000C940000CF93DF93CDB7DEB72A979F
S11300A00FB6F894DEBF0FBECDBF84B18B7F84B989
S11300B084B1877F84B98FEF8AB985B1846085B9AB
S11300C085B1886085B98AE0E0E0F1E0DE0111964F
S11300D001900D928A95E1F789818BB9FDCFF8944F
S10500E0FFCF4C
S10D00E2FC60DAF24CB6BEE0FEF654
S9030000FC
